{
  "_format": "hh-sol-artifact-1",
  "contractName": "AMM",
  "sourceName": "contracts/AMM.sol",
  "abi": [
    {
      "anonymous": false,
      "inputs": [
        {
          "indexed": false,
          "internalType": "address",
          "name": "caller",
          "type": "address"
        },
        {
          "indexed": false,
          "internalType": "uint256",
          "name": "amount",
          "type": "uint256"
        },
        {
          "indexed": false,
          "internalType": "string",
          "name": "message",
          "type": "string"
        }
      ],
      "name": "Swap",
      "type": "event"
    },
    {
      "inputs": [
        {
          "internalType": "uint256",
          "name": "_amount",
          "type": "uint256"
        },
        {
          "internalType": "string",
          "name": "_message",
          "type": "string"
        }
      ],
      "name": "swap",
      "outputs": [
        {
          "internalType": "uint256",
          "name": "",
          "type": "uint256"
        }
      ],
      "stateMutability": "payable",
      "type": "function"
    }
  ],
  "bytecode": "0x608060405234801561001057600080fd5b50610491806100206000396000f3fe60806040526004361061001e5760003560e01c8063deb4a6d214610023575b600080fd5b61003d6004803603810190610038919061026b565b610053565b60405161004a91906102d6565b60405180910390f35b6000808311610097576040517f08c379a000000000000000000000000000000000000000000000000000000000815260040161008e9061034e565b60405180910390fd5b7fd44afbad7c7ca0c5ed78b11661f1265b41dd49d05f79baf6edab7f76e8232e523384846040516100ca9392919061041d565b60405180910390a182905092915050565b6000604051905090565b600080fd5b600080fd5b6000819050919050565b610102816100ef565b811461010d57600080fd5b50565b60008135905061011f816100f9565b92915050565b600080fd5b600080fd5b6000601f19601f8301169050919050565b7f4e487b7100000000000000000000000000000000000000000000000000000000600052604160045260246000fd5b6101788261012f565b810181811067ffffffffffffffff8211171561019757610196610140565b5b80604052505050565b60006101aa6100db565b90506101b6828261016f565b919050565b600067ffffffffffffffff8211156101d6576101d5610140565b5b6101df8261012f565b9050602081019050919050565b82818337600083830152505050565b600061020e610209846101bb565b6101a0565b90508281526020810184848401111561022a5761022961012a565b5b6102358482856101ec565b509392505050565b600082601f83011261025257610251610125565b5b81356102628482602086016101fb565b91505092915050565b60008060408385031215610282576102816100e5565b5b600061029085828601610110565b925050602083013567ffffffffffffffff8111156102b1576102b06100ea565b5b6102bd8582860161023d565b9150509250929050565b6102d0816100ef565b82525050565b60006020820190506102eb60008301846102c7565b92915050565b600082825260208201905092915050565b7f416d6f756e742063616e6e6f74206265207a65726f0000000000000000000000600082015250565b60006103386015836102f1565b915061034382610302565b602082019050919050565b600060208201905081810360008301526103678161032b565b9050919050565b600073ffffffffffffffffffffffffffffffffffffffff82169050919050565b60006103998261036e565b9050919050565b6103a98161038e565b82525050565b600081519050919050565b60005b838110156103d85780820151818401526020810190506103bd565b60008484015250505050565b60006103ef826103af565b6103f981856102f1565b93506104098185602086016103ba565b6104128161012f565b840191505092915050565b600060608201905061043260008301866103a0565b61043f60208301856102c7565b818103604083015261045181846103e4565b905094935050505056fea2646970667358221220e5ddeccb3066d419eaa108b4edf48bed3f14f246529dca61a927681c209d04da64736f6c63430008130033",
  "linkReferences": {},
  "deployedLinkReferences": {}
}