{
  "_format": "hh-sol-artifact-1",
  "contractName": "SwappingAggregator",
  "sourceName": "contracts/SwappingAggregator.sol",
  "abi": [
    {
      "inputs": [
        {
          "components": [
            {
              "internalType": "address",
              "name": "target",
              "type": "address"
            },
            {
              "internalType": "bytes",
              "name": "data",
              "type": "bytes"
            }
          ],
          "internalType": "struct SwappingAggregator.Call[]",
          "name": "callData",
          "type": "tuple[]"
        }
      ],
      "name": "execute",
      "outputs": [],
      "stateMutability": "payable",
      "type": "function"
    }
  ],
  "bytecode": "0x608060405234801561001057600080fd5b50610745806100206000396000f3fe60806040526004361061001e5760003560e01c8063baae8abf14610023575b600080fd5b61003d600480360381019061003891906104a5565b61003f565b005b6000815111610083576040517f08c379a000000000000000000000000000000000000000000000000000000000815260040161007a9061054b565b60405180910390fd5b60005b815181101561018d5760008282815181106100a4576100a361056b565b5b60200260200101516000015173ffffffffffffffffffffffffffffffffffffffff16348484815181106100da576100d961056b565b5b6020026020010151602001516040516100f3919061060b565b60006040518083038185875af1925050503d8060008114610130576040519150601f19603f3d011682016040523d82523d6000602084013e610135565b606091505b5050905080610179576040517f08c379a00000000000000000000000000000000000000000000000000000000081526004016101709061066e565b60405180910390fd5b508080610185906106c7565b915050610086565b5050565b6000604051905090565b600080fd5b600080fd5b600080fd5b6000601f19601f8301169050919050565b7f4e487b7100000000000000000000000000000000000000000000000000000000600052604160045260246000fd5b6101f3826101aa565b810181811067ffffffffffffffff82111715610212576102116101bb565b5b80604052505050565b6000610225610191565b905061023182826101ea565b919050565b600067ffffffffffffffff821115610251576102506101bb565b5b602082029050602081019050919050565b600080fd5b600080fd5b600080fd5b600073ffffffffffffffffffffffffffffffffffffffff82169050919050565b600061029c82610271565b9050919050565b6102ac81610291565b81146102b757600080fd5b50565b6000813590506102c9816102a3565b92915050565b600080fd5b600067ffffffffffffffff8211156102ef576102ee6101bb565b5b6102f8826101aa565b9050602081019050919050565b82818337600083830152505050565b6000610327610322846102d4565b61021b565b905082815260208101848484011115610343576103426102cf565b5b61034e848285610305565b509392505050565b600082601f83011261036b5761036a6101a5565b5b813561037b848260208601610314565b91505092915050565b60006040828403121561039a57610399610267565b5b6103a4604061021b565b905060006103b4848285016102ba565b600083015250602082013567ffffffffffffffff8111156103d8576103d761026c565b5b6103e484828501610356565b60208301525092915050565b60006104036103fe84610236565b61021b565b9050808382526020820190506020840283018581111561042657610425610262565b5b835b8181101561046d57803567ffffffffffffffff81111561044b5761044a6101a5565b5b8086016104588982610384565b85526020850194505050602081019050610428565b5050509392505050565b600082601f83011261048c5761048b6101a5565b5b813561049c8482602086016103f0565b91505092915050565b6000602082840312156104bb576104ba61019b565b5b600082013567ffffffffffffffff8111156104d9576104d86101a0565b5b6104e584828501610477565b91505092915050565b600082825260208201905092915050565b7f456d7074792043616c6c20446174610000000000000000000000000000000000600082015250565b6000610535600f836104ee565b9150610540826104ff565b602082019050919050565b6000602082019050818103600083015261056481610528565b9050919050565b7f4e487b7100000000000000000000000000000000000000000000000000000000600052603260045260246000fd5b600081519050919050565b600081905092915050565b60005b838110156105ce5780820151818401526020810190506105b3565b60008484015250505050565b60006105e58261059a565b6105ef81856105a5565b93506105ff8185602086016105b0565b80840191505092915050565b600061061782846105da565b915081905092915050565b7f5377617020657865637574696f6e206661696c65640000000000000000000000600082015250565b60006106586015836104ee565b915061066382610622565b602082019050919050565b600060208201905081810360008301526106878161064b565b9050919050565b7f4e487b7100000000000000000000000000000000000000000000000000000000600052601160045260246000fd5b6000819050919050565b60006106d2826106bd565b91507fffffffffffffffffffffffffffffffffffffffffffffffffffffffffffffffff82036107045761070361068e565b5b60018201905091905056fea26469706673582212209ab26c86233442df00353200c3b202cceb9c835b61ee4f9a3027658d4385c01064736f6c63430008130033",
  "linkReferences": {},
  "deployedLinkReferences": {}
}